:1000000000308A0011280000223084008313000889
:10001000031910285230F700F70B0C28800B0A2820
:100020000800840183131F308305FF30A00083166E
:100030001F149F141F159F1107309C00003086006D
:10004000860183128601831605108312051402307F
:10005000A100FA30A2000420A10B292883168510E4
:10006000831285140230A100FA30A2000420A10BF3
:10007000342883160511831205150230A100FA30C9
:10008000A2000420A10B3F28831685118312851539
:100090000230A100FA30A2000420A10B4A288316E6
:1000A0000512831205160230A100FA30A2000420C6
:1000B000A10B552883168512831285160230A100E4
:1000C000FA30A2000420A10B6028831606108312C8
:1000D00006140230A100FA30A2000420A10B6B2804
:1000E00083168610831286140230A100FA30A20013
:1000F0000420A10B76288316061183120615023000
:10010000A100FA30A2000420A10B812883168611D9
:10011000831286150230A100FA30A2000420A10B40
:100120008C2883160612831206160230A100FA30BC
:10013000A2000420A10B972883168612831286162C
:100140000230A100FA30A2000420A10BA2288316DD
:100150000613831206170230A100FA30A200042011
:10016000A10BAD2883168613831286170230A100D7
:10017000FA30A2000420A10BB82820102008831612
:100180008700831207140230A100FA30A200042075
:10019000A10BC528A010200883168700831287149E
:1001A0000230A100FA30A2000420A10BD2282011B5
:1001B000200883168700831207150230A100FA3049
:1001C000A2000420A10BDF28A011200883168700BD
:1001D000831287150230A100FA30A2000420A10B7F
:1001E000EC2820122008831687008312071602309D
:1001F000A100FA30A2000420A10BF928A0122008C7
:1002000083168700831287160230A100FA30A200FD
:100210000420A10B062920132008831687008312CF
:1002200007170230A100FA30A2000420A10B132905
:10023000A013200883168700831287170230A100BD
:10024000FA30A2000420A10B202983160810831283
:1002500008140230A100FA30A2000420A10B2B29BF
:1002600083168810831288140230A100FA30A2008D
:100270000420A10B362983160811831208150230B9
:10028000A100FA30A2000420A10B41298316881195
:10029000831288150230A100FA30A2000420A10BBD
:1002A0004C2983160812831208160230A100FA3076
:1002B000A2000420A10B57298316881283128816E6
:1002C0000230A100FA30A2000420A10B622983169B
:1002D0000813831208170230A100FA30A20004208C
:1002E000A10B6D2983168813831288170230A10091
:1002F000FA30A2000420A10B78298316091083127A
:1003000009140230A100FA30A2000420A10B8329B5
:1003100083168910831289140230A100FA30A200DA
:100320000420A10B8E2983160911831209150230AE
:10033000A100FA30A2000420A10B99298316051010
:10034000831205100230A100FA30A2000420A10B94
:10035000A42983168510831285100230A100FA307B
:10036000A2000420A10BAF298316051183120511E9
:100370000230A100FA30A2000420A10BBA29831692
:100380008511831285110230A100FA30A2000420E9
:10039000A10BC52983160512831205120230A10094
:1003A000FA30A2000420A10BD029831685128312F3
:1003B00085120230A100FA30A2000420A10BDB2933
:1003C00083160610831206100230A100FA30A20034
:1003D0000420A10BE62983168610831286100230B2
:1003E000A100FA30A2000420A10BF1298316061106
:1003F000831206110230A100FA30A2000420A10BE2
:10040000FC2983168611831286110230A100FA306E
:10041000A2000420A10B072A8316061283120612DB
:100420000230A100FA30A2000420A10B122A831688
:100430008612831286120230A100FA30A200042034
:10044000A10B1D2A83160613831206130230A10086
:10045000FA30A2000420A10B282A831686138312E7
:1004600086130230A100FA30A2000420A10B332A27
:100470002010200883168700831207100230A10085
:10048000FA30A2000420A10B402AA01020088316F5
:100490008700831287100230A100FA30A2000420E6
:1004A000A10B4D2A20112008831687008312071103
:1004B0000230A100FA30A2000420A10B5A2AA01198
:1004C000200883168700831287110230A100FA30BA
:1004D000A2000420A10B672A20122008831687009F
:1004E000831207120230A100FA30A2000420A10BEF
:1004F000742AA01220088316870083128712023004
:10050000A100FA30A2000420A10B812A20132008A8
:1005100083168700831207130230A100FA30A2006D
:100520000420A10B8E2AA0132008831687008312B3
:1005300087130230A100FA30A2000420A10B9B2AED
:1005400083160810831208100230A100FA30A200AE
:100550000420A10BA62A831688108312881002306B
:10056000A100FA30A2000420A10BB12A83160811C1
:10057000831208110230A100FA30A2000420A10B5E
:10058000BC2A83168811831288110230A100FA3028
:10059000A2000420A10BC72A831608128312081296
:1005A0000230A100FA30A2000420A10BD22A831647
:1005B0008812831288120230A100FA30A2000420AF
:1005C000A10BDD2A83160813831208130230A10041
:1005D000FA30A2000420A10BE82A831688138312A4
:1005E00088130230A100FA30A2000420A10BF32AE4
:1005F00083160910831209100230A100FA30A200FC
:100600000420A10BFE2A8316891083128910023060
:10061000A100FA30A2000420A10B092B83160911B6
:10062000831209110230A100FA30A2000420A10BAC
:06063000142B23286300D7
:02400E00713F00
:00000001FF
;PIC16F877A
;CRC=6E73  CREATED="12-oct-17 13:37"
